{
  "_format": "hh-sol-artifact-1",
  "contractName": "RouterHpsmSynths",
  "sourceName": "contracts/RouterHpsmSynths.sol",
  "abi": [
    {
      "inputs": [
        {
          "internalType": "address",
          "name": "hpsm",
          "type": "address"
        },
        {
          "internalType": "address",
          "name": "tokenTransferProxy",
          "type": "address"
        },
        {
          "internalType": "address",
          "name": "account_",
          "type": "address"
        },
        {
          "internalType": "address",
          "name": "treasury_",
          "type": "address"
        }
      ],
      "stateMutability": "nonpayable",
      "type": "constructor"
    },
    {
      "inputs": [],
      "name": "account",
      "outputs": [
        {
          "internalType": "contract IAccount",
          "name": "",
          "type": "address"
        }
      ],
      "stateMutability": "view",
      "type": "function"
    },
    {
      "inputs": [],
      "name": "hpsm",
      "outputs": [
        {
          "internalType": "address",
          "name": "",
          "type": "address"
        }
      ],
      "stateMutability": "view",
      "type": "function"
    },
    {
      "inputs": [
        {
          "internalType": "uint256",
          "name": "accountId",
          "type": "uint256"
        },
        {
          "internalType": "address",
          "name": "peggedToken",
          "type": "address"
        },
        {
          "internalType": "uint256",
          "name": "depositAmount",
          "type": "uint256"
        },
        {
          "internalType": "address",
          "name": "depositor",
          "type": "address"
        },
        {
          "internalType": "contract IERC20",
          "name": "depositToken",
          "type": "address"
        },
        {
          "internalType": "bool",
          "name": "useAllowance",
          "type": "bool"
        },
        {
          "internalType": "bytes",
          "name": "depositorSignature",
          "type": "bytes"
        }
      ],
      "name": "hpsmDepositIntoAccount",
      "outputs": [],
      "stateMutability": "nonpayable",
      "type": "function"
    },
    {
      "inputs": [
        {
          "internalType": "uint256",
          "name": "newAccountId",
          "type": "uint256"
        },
        {
          "internalType": "address",
          "name": "peggedToken",
          "type": "address"
        },
        {
          "internalType": "uint256",
          "name": "depositAmount",
          "type": "uint256"
        },
        {
          "internalType": "address",
          "name": "depositor",
          "type": "address"
        },
        {
          "internalType": "address",
          "name": "recipient",
          "type": "address"
        },
        {
          "internalType": "contract IERC20",
          "name": "depositToken",
          "type": "address"
        },
        {
          "internalType": "bytes",
          "name": "openSignature",
          "type": "bytes"
        },
        {
          "internalType": "bytes32",
          "name": "referralCode",
          "type": "bytes32"
        },
        {
          "internalType": "bool",
          "name": "useAllowance",
          "type": "bool"
        }
      ],
      "name": "hpsmOpenAccountWithId",
      "outputs": [],
      "stateMutability": "nonpayable",
      "type": "function"
    },
    {
      "inputs": [
        {
          "internalType": "address",
          "name": "peggedToken",
          "type": "address"
        },
        {
          "components": [
            {
              "internalType": "uint256",
              "name": "accountId",
              "type": "uint256"
            },
            {
              "internalType": "address",
              "name": "accountUser",
              "type": "address"
            },
            {
              "internalType": "address",
              "name": "token",
              "type": "address"
            },
            {
              "internalType": "address",
              "name": "recipient",
              "type": "address"
            },
            {
              "internalType": "uint256",
              "name": "amount",
              "type": "uint256"
            },
            {
              "internalType": "uint256[]",
              "name": "lpProfitsAmount",
              "type": "uint256[]"
            },
            {
              "internalType": "address[]",
              "name": "lpProfitsId",
              "type": "address[]"
            },
            {
              "internalType": "bytes",
              "name": "signature",
              "type": "bytes"
            }
          ],
          "internalType": "struct WithdrawRequest",
          "name": "request",
          "type": "tuple"
        }
      ],
      "name": "hpsmWithdrawFromAccount",
      "outputs": [],
      "stateMutability": "nonpayable",
      "type": "function"
    },
    {
      "inputs": [],
      "name": "treasury",
      "outputs": [
        {
          "internalType": "contract ITreasury",
          "name": "",
          "type": "address"
        }
      ],
      "stateMutability": "view",
      "type": "function"
    }
  ],
  "bytecode": "0x6101206040523480156200001257600080fd5b50604051620016353803806200163583398101604081905262000035916200008a565b30606090811b6080526001600160601b031993811b841660a05293841b831660c05290831b821660e05290911b1661010052620000e7565b80516001600160a01b03811681146200008557600080fd5b919050565b60008060008060808587031215620000a157600080fd5b620000ac856200006d565b9350620000bc602086016200006d565b9250620000cc604086016200006d565b9150620000dc606086016200006d565b905092959194509250565b60805160601c60a05160601c60c05160601c60e05160601c6101005160601c6114be620001776000396000818160eb015261029c01526000818160c40152818161015b0152610201015260008181606c01528181610361015281816104e2015281816108500152818161090a0152610a8101526000610671015260008181610642015261095001526114be6000f3fe608060405234801561001057600080fd5b50600436106100625760003560e01c80633d2ac218146100675780635c3d699f146100aa5780635dab2420146100bf57806361d027b3146100e657806367348a361461010d578063b495ef6014610120575b600080fd5b61008e7f000000000000000000000000000000000000000000000000000000000000000081565b6040516001600160a01b03909116815260200160405180910390f35b6100bd6100b8366004610f02565b610133565b005b61008e7f000000000000000000000000000000000000000000000000000000000000000081565b61008e7f000000000000000000000000000000000000000000000000000000000000000081565b6100bd61011b366004610e42565b6101d9565b6100bd61012e366004610db4565b610285565b600061014188888888610337565b60405163261675fb60e11b81529091506001600160a01b037f00000000000000000000000000000000000000000000000000000000000000001690634c2cebf69061019c908c9085908b908b908b908b908b906004016111ff565b600060405180830381600087803b1580156101b657600080fd5b505af11580156101ca573d6000803e3d6000fd5b50505050505050505050505050565b60006101e78a8a8a89610337565b604051632c0c4ae160e01b81529091506001600160a01b037f00000000000000000000000000000000000000000000000000000000000000001690632c0c4ae190610246908e9085908d908d908d908d908d908d908d9060040161119e565b600060405180830381600087803b15801561026057600080fd5b505af1158015610274573d6000803e3d6000fd5b505050505050505050505050505050565b604051634351c0cd60e01b81526001600160a01b037f00000000000000000000000000000000000000000000000000000000000000001690634351c0cd906102d19084906004016110bd565b600060405180830381600087803b1580156102eb57600080fd5b505af11580156102ff573d6000803e3d6000fd5b506103329250849150506080830180359061031d9060608601610d97565b61032d6060860160408701610d97565b6104b8565b505050565b604051631c8ad6b360e01b81526001600160a01b03828116600483015285811660248301526000917f000000000000000000000000000000000000000000000000000000000000000090911690631c8ad6b39060440160206040518083038186803b1580156103a557600080fd5b505afa1580156103b9573d6000803e3d6000fd5b505050506040513d601f19601f820116820180604052508101906103dd9190610e0c565b6104215760405162461bcd60e51b815260206004820152601060248201526f151bdad95b881b9bdd081c1959d9d95960821b60448201526064015b60405180910390fd5b61042c85858561061b565b60006104398387876106d3565b9050610446868483610839565b600061045184610939565b9050600081116104a35760405162461bcd60e51b815260206004820152601760248201527f5a65726f206e6574206465706f73697420616d6f756e740000000000000000006044820152606401610418565b6104ae8486836109dc565b9695505050505050565b604051631c8ad6b360e01b81526001600160a01b03828116600483015285811660248301526000917f000000000000000000000000000000000000000000000000000000000000000090911690631c8ad6b39060440160206040518083038186803b15801561052657600080fd5b505afa15801561053a573d6000803e3d6000fd5b505050506040513d601f19601f8201168201806040525081019061055e9190610e0c565b61059d5760405162461bcd60e51b815260206004820152601060248201526f151bdad95b881b9bdd081c1959d9d95960821b6044820152606401610418565b6105a882858561061b565b6105b3828686610a53565b60006105be86610939565b9050600081116106075760405162461bcd60e51b815260206004820152601460248201527316995c9bc81dda5d1a191c985dc8185b5bdd5b9d60621b6044820152606401610418565b6106128685836109dc565b95945050505050565b60405163e599490560e01b81526001600160a01b03848116600483015282811660248301527f000000000000000000000000000000000000000000000000000000000000000081166044830152606482018490527f0000000000000000000000000000000000000000000000000000000000000000169063e5994905906084015b600060405180830381600087803b1580156106b657600080fd5b505af11580156106ca573d6000803e3d6000fd5b50505050505050565b600080846001600160a01b031663313ce5676040518163ffffffff1660e01b815260040160206040518083038186803b15801561070f57600080fd5b505afa158015610723573d6000803e3d6000fd5b505050506040513d601f19601f820116820180604052508101906107479190610fa3565b60ff1690506000846001600160a01b031663313ce5676040518163ffffffff1660e01b815260040160206040518083038186803b15801561078757600080fd5b505afa15801561079b573d6000803e3d6000fd5b505050506040513d601f19601f820116820180604052508101906107bf9190610fa3565b60ff169050808214156107d6578392505050610832565b60008183111561080b576107ea8284611409565b90506107f781600a611342565b61080190866112dd565b9350505050610832565b6108158383611409565b905061082281600a611342565b61082c90866113ea565b93505050505b9392505050565b60405163095ea7b360e01b81526001600160a01b037f0000000000000000000000000000000000000000000000000000000000000000811660048301526024820183905284169063095ea7b390604401602060405180830381600087803b1580156108a357600080fd5b505af11580156108b7573d6000803e3d6000fd5b505050506040513d601f19601f820116820180604052508101906108db9190610e0c565b50604051638340f54960e01b81526001600160a01b0383811660048301528481166024830152604482018390527f00000000000000000000000000000000000000000000000000000000000000001690638340f5499060640161069c565b6040516370a0823160e01b81526001600160a01b037f000000000000000000000000000000000000000000000000000000000000000081166004830152600091908316906370a082319060240160206040518083038186803b15801561099e57600080fd5b505afa1580156109b2573d6000803e3d6000fd5b505050506040513d601f19601f820116820180604052508101906109d69190610e29565b92915050565b60006109e784610939565b905081811015610a395760405162461bcd60e51b815260206004820152601760248201527f496e73756666696369656e7420616d6f756e74206f75740000000000000000006044820152606401610418565b610a4d6001600160a01b0385168483610ab0565b50505050565b604051636ce5768960e11b81526001600160a01b0384811660048301528381166024830152604482018390527f0000000000000000000000000000000000000000000000000000000000000000169063d9caed129060640161069c565b604080516001600160a01b03848116602483015260448083018590528351808403909101815260649092018352602080830180516001600160e01b031663a9059cbb60e01b17905283518085019094528084527f5361666545524332303a206c6f772d6c6576656c2063616c6c206661696c65649084015261033292869291600091610b40918516908490610bbd565b8051909150156103325780806020019051810190610b5e9190610e0c565b6103325760405162461bcd60e51b815260206004820152602a60248201527f5361666545524332303a204552433230206f7065726174696f6e20646964206e6044820152691bdd081cdd58d8d9595960b21b6064820152608401610418565b6060610bcc8484600085610bd4565b949350505050565b606082471015610c355760405162461bcd60e51b815260206004820152602660248201527f416464726573733a20696e73756666696369656e742062616c616e636520666f6044820152651c8818d85b1b60d21b6064820152608401610418565b6001600160a01b0385163b610c8c5760405162461bcd60e51b815260206004820152601d60248201527f416464726573733a2063616c6c20746f206e6f6e2d636f6e74726163740000006044820152606401610418565b600080866001600160a01b03168587604051610ca8919061106e565b60006040518083038185875af1925050503d8060008114610ce5576040519150601f19603f3d011682016040523d82523d6000602084013e610cea565b606091505b5091509150610cfa828286610d05565b979650505050505050565b60608315610d14575081610832565b825115610d245782518084602001fd5b8160405162461bcd60e51b8152600401610418919061108a565b8035610d4981611462565b919050565b60008083601f840112610d6057600080fd5b50813567ffffffffffffffff811115610d7857600080fd5b602083019150836020828501011115610d9057600080fd5b9250929050565b600060208284031215610da957600080fd5b813561083281611462565b60008060408385031215610dc757600080fd5b8235610dd281611462565b9150602083013567ffffffffffffffff811115610dee57600080fd5b83016101008186031215610e0157600080fd5b809150509250929050565b600060208284031215610e1e57600080fd5b81516108328161147a565b600060208284031215610e3b57600080fd5b5051919050565b6000806000806000806000806000806101208b8d031215610e6257600080fd5b8a35995060208b0135610e7481611462565b985060408b0135975060608b0135610e8b81611462565b965060808b0135610e9b81611462565b955060a08b0135610eab81611462565b945060c08b013567ffffffffffffffff811115610ec757600080fd5b610ed38d828e01610d4e565b90955093505060e08b013591506101008b0135610eef8161147a565b809150509295989b9194979a5092959850565b60008060008060008060008060e0898b031215610f1e57600080fd5b883597506020890135610f3081611462565b9650604089013595506060890135610f4781611462565b94506080890135610f5781611462565b935060a0890135610f678161147a565b925060c089013567ffffffffffffffff811115610f8357600080fd5b610f8f8b828c01610d4e565b999c989b5096995094979396929594505050565b600060208284031215610fb557600080fd5b815160ff8116811461083257600080fd5b8183526000602080850194508260005b85811015611004578135610fe981611462565b6001600160a01b031687529582019590820190600101610fd6565b509495945050505050565b81835260006001600160fb1b0383111561102857600080fd5b8260051b8083602087013760009401602001938452509192915050565b81835281816020850137506000828201602090810191909152601f909101601f19169091010190565b60008251611080818460208701611420565b9190910192915050565b60208152600082518060208401526110a9816040850160208701611420565b601f01601f19169190910160400192915050565b602081528135602082015260006110d660208401610d3e565b6001600160a01b0381166040840152506110f260408401610d3e565b6001600160a01b03811660608401525061110e60608401610d3e565b6001600160a01b038116608084015250608083013560a083015261113560a084018461124e565b6101008060c086015261114d6101208601838561100f565b925061115c60c087018761124e565b9250601f19808786030160e0880152611176858584610fc6565b945061118560e0890189611297565b9450915080878603018388015250610cfa848483611045565b898152602081018990526001600160a01b03888116604083015287811660608301528616608082015261010060a082018190526000906111e18382018789611045565b60c0840195909552505090151560e090910152979650505050505050565b878152602081018790526001600160a01b03868116604083015285166060820152831515608082015260c060a082018190526000906112419083018486611045565b9998505050505050505050565b6000808335601e1984360301811261126557600080fd5b830160208101925035905067ffffffffffffffff81111561128557600080fd5b8060051b3603831315610d9057600080fd5b6000808335601e198436030181126112ae57600080fd5b830160208101925035905067ffffffffffffffff8111156112ce57600080fd5b803603831315610d9057600080fd5b6000826112fa57634e487b7160e01b600052601260045260246000fd5b500490565b600181815b8085111561133a5781600019048211156113205761132061144c565b8085161561132d57918102915b93841c9390800290611304565b509250929050565b60006108328383600082611358575060016109d6565b81611365575060006109d6565b816001811461137b5760028114611385576113a1565b60019150506109d6565b60ff8411156113965761139661144c565b50506001821b6109d6565b5060208310610133831016604e8410600b84101617156113c4575081810a6109d6565b6113ce83836112ff565b80600019048211156113e2576113e261144c565b029392505050565b60008160001904831182151516156114045761140461144c565b500290565b60008282101561141b5761141b61144c565b500390565b60005b8381101561143b578181015183820152602001611423565b83811115610a4d5750506000910152565b634e487b7160e01b600052601160045260246000fd5b6001600160a01b038116811461147757600080fd5b50565b801515811461147757600080fdfea264697066735822122010ca3e7b8cb5a941f3e14d1fe9677cd18d2cd358d5126e72199e4a7f9dd8686a64736f6c63430008070033",
  "linkReferences": {},
  "deployedLinkReferences": {}
}